:1000000000800020BD010000B5190000811900002A
:100010008119000081190000811900008119000078
:10002000811900008119000081190000B519000034
:10003000B5190000811900005D05000021060000CF
:10004000B5190000B5190000B5190000B519000078
:10005000B5190000B5190000B5190000B519000068
:10006000B5190000B5190000B5190000B519000058
:10007000B5190000B5190000B5190000B519000048
:10008000B5190000B5190000B5190000B519000038
:10009000B5190000B5190000B5190000B519000028
:1000A000B5190000B5190000B5190000B519000018
:1000B000B5190000B5190000B5190000B519000008
:1000C000B5190000B5190000B5190000B5190000F8
:1000D000B5190000B5190000B5190000B5190000E8
:1000E000B5190000B5190000B5190000B5190000D8
:1000F000B519000089070000B5190000A508000027
:10010000B5190000C1090000B5190000B5190000BB
:10011000B5190000B5190000B5190000B5190000A7
:10012000B5190000B5190000B5190000B519000097
:10013000B5190000B5190000B5190000B519000087
:10014000B5190000B5190000B5190000B519000077
:10015000B5190000B5190000B5190000B519000067
:10016000B5190000D90B0000B5190000B519000041
:10017000B5190000B5190000B5190000B519000047
:10018000B5190000B5190000B5190000B519000037
:10019000B5190000B5190000B5190000B519000027
:1001A000B5190000B5190000B5190000B519000017
:1001B000B5190000B5190000B5190000564B4CF2F6
:1001C000205210B51A804DF628121A8000BF00BFC9
:1001D00001F0F4FB514B4FF010621A60504A9A60E4
:1001E000504ADA60504A136813F4807301BF4F49D4
:1001F0000B604FF4A85313604D4B4E491A7810070B
:1002000042BF1A7842F008021A704B4B2A221A7029
:100210004A4A4B4B8B4204D252F8040F43F8040B6A
:10022000F8E7484B484A0021934202D243F8041BA6
:10023000FAE7464A4648002350F8231042F82310B4
:1002400001336F2BF8D1434B434A802103F8011B44
:100250009342FBD1414B3D4A1A60414B8A221A70AE
:10026000A3F5805324225A70A0221A709A7991071C
:10027000FCD59A79D206FCD43A4A937903F00C0360
:10028000082B384BF9D105221A7143225A719A79F9
:100290009406FCD533498A79324B5006FBD5324A55
:1002A0004FF0817111600521516020221A709A79F6
:1002B00002F00C020C2AFAD12C4B2D4A1A602D4B5D
:1002C0002D4A1A6000225A60072243F8042C2B4A58
:1002D000C3F80C2D62B600F0F5F9144B1B68DA0771
:1002E00005D5274800F0A8F9264B274A1A60274B66
:1002F0001B785B0609D5234C234B22689A4204D114
:100300001F4800F099F90023236001F0B9FB01F0C8
:100310005BFB00F0ADF8FEE70E20054030800440A6
:10032000823F04000100002B10D0034014D0034092
:1003300002D00740F08BFF1F00E007402C1C00009C
:100340002087FF1FF08BFF1FBC8EFF1F0082FF1F47
:100350000000000000E400E05FE400E008ED00E0E1
:1003600000500640004006404480044004800440A1
:10037000C010050014E000E03F190100000020203B
:100380006A3C495D1CE00340A5C3945A00F0074055
:10039000FFFFFFFFFFFFFFFFFFFFFFFFFFFFFFFF6D
:1003A000FFFFFFFFFFFFFFFFFFFFFFFFFFFFFFFF5D
:1003B000FFFFFFFFFFFFFFFFFFFFFFFFFFFFFFFF4D
:1003C000FFFFFFFFFFFFFFFFFFFFFFFFFFFFFFFF3D
:1003D000FFFFFFFFFFFFFFFFFFFFFFFFFFFFFFFF2D
:1003E000FFFFFFFFFFFFFFFFFFFFFFFFFFFFFFFF1D
:1003F000FFFFFFFFFFFFFFFFFFFFFFFFFFFFFFFF0D
:10040000FFFFFFFFFFFFFFFFFFFFFFFFDEF9FFFF23
:1004100010B5054C237833B9044B13B10448AFF33E
:1004200000800123237010BDF08BFF1F000000002F
:10043000301C0000084B10B51BB108490848AFF349
:1004400000800848036803B910BD074B002BFBD0A0
:10045000BDE81040184700BF00000000F48BFF1FEC
:10046000301C0000F08BFF1F000000007047704739
:1004700008B5FFF7FBFFFFF7FAFF00F001F8FAE716
:1004800038B51E4C2378002B36D10123237001F0A0
:10049000E9F908B101F0A4F900F066F908B100F03B
:1004A000C7F800F0EFF908B100F0C3F800F078FAEF
:1004B00008B100F0BFF800232370EFF30583DBB928
:1004C000EFF3108272B60E4D286810B10D4C2178F2
:1004D00011B18AB962B638BD0123237043692B601C
:1004E0000BB1996101E008490B6002B962B60025C1
:1004F000457783689847257038BD00BF0C8CFF1F77
:10050000208CFF1F248CFF1F1C8CFF1FEFF310801B
:1005100072B6B0FA80F04009704700B162B6704719
:10052000F8B50C4E0C4F0025FFF7F0FF346802467B
:100530006CB1636933600BB19D6100E03B601046B4
:10054000FFF7EBFF6577A36820469847ECE7FFF7D6
:10055000E4FFF8BD108CFF1F148CFF1FFFF7E0BFF6
:1005600015490B6830B513B98360C36009E00468AE
:100570001A68944207D20025121B8360C560D860B8
:100580001A60086015E002681C689968121B026016
:1005900061B10C68A2420B46F5D28160C968C160A6
:1005A000D860C168A21A88601A6002E08160C360E6
:1005B00098600223037530BD188CFF1F70B5164D6F
:1005C0002C680026BCB1236813B1013B236012E004
:1005D000A26802B1D36020692A60036826751B688F
:1005E00022460021984763681BB123602046FFF72D
:1005F000B7FF2C68E6E7FFF789FF084B00221C686D
:100600001A60FFF78AFF2CB1A5682046FFF7A8FF04
:100610002C46F8E770BD00BF188CFF1F288CFF1F09
:10062000024A136801331360FFF7C8BF2C8CFF1F09
:10063000704770477047FFFF044B054900221A605E
:100640000A60044A106010221A60704714D00340F8
:1006500004D0034000D0034072B60C4B0C4A0D4945
:100660001B681268096862B6490102D5322B88BF3F
:100670000132C3F58C33482003F23F13B3FBF0F390
:100680004FF47A7000FB0230704700BF18E000E0C2
:100690002C8CFF1F04ED00E038B50446FFF7DCFFAB
:1006A000054624B938BD013C0AD005F57A75FFF737
:1006B000D3FF401BB0F57A7FF5D2FFF7E1FEF6E7F6
:1006C00038BDFFFF214B4FF4000210B51A604FF008
:1006D00080721A604FF000721A604FF080621A60E8
:1006E0004FF000621A601A4B1A4A1B4C002048F661
:1006F000FF71186059602823136093601361936140
:1007000013629362136393630922226004F5805499
:10071000043420606160A360236144F8042C04F574
:10072000FE2420600D4801600D490B608B600D4B6D
:100730001A6001F0C9F81920FFF7AEFF00F0E4FFDE
:1007400040F21310BDE81040FFF7A6BF08E100E03B
:10075000048003400C8003400080034008800B406D
:100760000C800B4000800B40054B1878054B1A7825
:10077000C0B2D3B2984238BF4030C01A704700BFF1
:10078000B68CFF1F358CFF1FF0B534490B7913F081
:10079000300F2FD072B68B7D03F0FF0423B9CB79D5
:1007A00040234B7462B625E062B62D482D4A03788B
:1007B00012782D4FDBB2D2B20546581C4028CE79B4
:1007C00028BF00209042F6B21CBF3E540346601E74
:1007D00010F0FF04F1D1D9B229702449096849B158
:1007E000934236BFC2F140029B1A9B18272BC4BF0D
:1007F00001230B70194AD178C9B20D061ED51379A1
:100800001C061BD51A4B1B481D7803781A4EEDB2F7
:10081000DBB2AB420AD00133402B28BF002314794E
:10082000F45CE4B2D471147D072CF2D9DBB203700E
:100830000A4B1A79100644BF7C22DA7049060CD59F
:10084000064B1A79520608D50C4A002111700C4A41
:10085000126802B111703C22DA70F0BD00A00640AF
:10086000B68CFF1F358CFF1F768CFF1F308CFF1F4F
:10087000BC8CFF1FB78CFF1F368CFF1F348CFF1FF3
:10088000B88CFF1F054B1878054B1A78C0B2D3B24D
:10089000984238BF4030C01A704700BF2E8DFF1FEE
:1008A000C58CFF1FF0B534490B7913F0300F2FD0F2
:1008B00072B68B7D03F0FF0423B9CB7940234B74D0
:1008C00062B625E062B62D482D4A037812782D4F86
:1008D000DBB2D2B20546581C4028CE7928BF002092
:1008E0009042F6B21CBF3E540346601E10F0FF0457
:1008F000F1D1D9B229702449096849B1934236BF70
:10090000C2F140029B1A9B18272BC4BF01230B7016
:10091000194AD178C9B20D061ED513791C061BD50C
:100920001A4B1B481D7803781A4EEDB2DBB2AB426E
:100930000AD00133282B28BF00231479F45CE4B2D9
:10094000D471147D072CF2D9DBB203700A4B1A79EB
:10095000100644BF7C22DA7049060CD5064B1A7982
:10096000520608D50C4A002111700C4A126802B1D7
:1009700011703C22DA70F0BD00B006402E8DFF1FD2
:10098000C58CFF1FEE8CFF1FC08CFF1F348DFF1F17
:100990002F8DFF1FC68CFF1FC48CFF1F308DFF1FC4
:1009A000054B1878054B1A78C0B2D3B2984238BFBD
:1009B0004030C01A704700BFA68DFF1F3D8DFF1F3E
:1009C00010B5284B1A79920620D52749DA790B7889
:1009D0002648013300783F2BC8BF0023834218BF4D
:1009E0002348D2B21EBFC254DAB20A70214A11683B
:1009F00061B1214A1278D2B2934236BFC2F14002AD
:100A00009B1A9B18272BC4BF01230B701549CA786A
:100A1000D2B2140616D50B79180613D5174B164CFF
:100A200018782378DBB2984202D16C23CB7009E0AE
:100A30000133282B28BF00231148C05CDBB2C0B2B1
:100A4000C871237051060CD5064B1A79520608D589
:100A50000C4A002111700C4A126802B111702C224C
:100A6000DA7010BD00C00640A68DFF1F3D8DFF1F30
:100A7000668DFF1F388DFF1FA78DFF1FAC8DFF1FD9
:100A80003E8DFF1F3C8DFF1FA88DFF1F30B472B637
:100A90002B4A13781D0706D52A4B196A002936D030
:100AA000996A002941D053781C0706D5254B196C4B
:100AB00000293ED0996C002939D09378190705D5C3
:100AC000204B196E002936D0996E89B1D3781B0757
:100AD00007D51C4BD3F880207AB3D3F88820112196
:100AE0003AB162B6184B00221A7030BC00F098BEC2
:100AF0000D21154C154D227843F8315003EBC103FD
:100B00000830013A5860227062B630BC7047042247
:100B10000D4C0F4D217843F8325003EBC2030830DF
:100B20004A1E5860227062B6EFE70521E1E709210D
:100B3000DFE70822ECE70C22EAE71022E8E700BF33
:100B4000BC1B00000080FF1F858EFF1FC8004000F7
:100B500088004000431E032B1DD81B4A400140F073
:100B6000100030B4104472B6184CE25C032A1BD853
:100B7000DFE802F00212151703220D88E25410F08C
:100B8000080F14BFC823882343EA054308310360D4
:100B9000416062B630BC704708300222EDE70522A2
:100BA000EBE708300422E8E7094A52F8230038B19D
:100BB000084A52F82300416042F8231062B6E9E780
:100BC00042F82310034AF7E70080FF1F948EFF1FAF
:100BD0005C8EFF1F6C8EFF1F2DE9F04FB54CB64E9B
:100BE00087B046E0B54F4FEA930B07EBCB08013DCA
:100BF000D8F8041003F00803EDB2A1F1080003F0E7
:100C0000FF02002B40F0108157F83B301B0C1FFAFD
:100C100083FE21F808EC002B00F0FD80A84B21F8A2
:100C2000062C41F8042C53F82520002A00F0DF821E
:100C3000DFF8CCA25AF825305860DFF8C8924AF89D
:100C4000250039F815309E4429F815E000F0CAFD5A
:100C5000002800F0C5829B499B4B18F0080F00F15B
:100C6000080018BF0B46C8F8040047F83B300823BB
:100C700023702578EDB2690719D5944B1B78A3B181
:100C800093490A7802F0FF0322B1013BDBB20B70FB
:100C900003B900BE8F490A7802F0FF032AB1013B75
:100CA000DBB20B70002B00F071820423237005F07F
:100CB000080303F0FF02002B00F0DC803378DBB286
:100CC0001D098FD19B087D4D55F8332005EBC301DD
:100CD000C2F38302013A49680C2A00F29880DFE8E7
:100CE00002F08C8C9696969696964D969696070060
:100CF0000868DFF8F4E14A68DFF80CB2764FCEF806
:100D00000420CEF8000082B240F281600021DFF8BA
:100D1000B49145F833904FF0010C8242CBF80010AB
:100D20002961A96187F800C0DFF8909100F2F08096
:100D3000B2F5D06F80F08F83B2F5817F00F0218310
:100D400000F2A882802A00F06283822A40F0208389
:100D5000BEF8043003F07F03042B00F219835F4ACE
:100D60005F489B001A440170417013789B0740F163
:100D70007A8480F800C04FF0020C4DE3DFF888B1B0
:100D8000DBF8003073B3DFF884A1534F554ABAF84B
:100D9000001097F800E0107840298C4640F00209D6
:100DA00028BF4FF0400CBEF1000F8EF0010E87F807
:100DB00000E0CCEB01010CBF8827C82705EBC90E6A
:100DC00089B280F0010047EA0C47CEF80430AAF857
:100DD000001045F8397063441070002900F0458117
:100DE000CBF80030404B1A88B2F5A06F0FD13F4AC4
:100DF0009978117000225A7009E03B4A108842F23B
:100E00002102904200F036812E4A45F83320384ABC
:100E1000012313702BE72B492B4B18F0080F18BF39
:100E20000B4647F83B3022E700F0FAFC3148324AE3
:100E300050F82510002900F013824B6812F805C005
:100E400040F8253001F10803C8F80430BCF1030F65
:100E500005D8DFE80CF02C0229260223535518F0A0
:100E6000080F0A880CBF8823C82343EA024347F8C7
:100E70003B30FCE6E80700F18C81290600F1008296
:100E8000AA0706D51D4A0B4913780220DBB213705E
:100E90000870EB0602D5074B10221A7007B0BDE8A8
:100EA000F08F04235355DAE705235355D7E703237F
:100EB0005355D4E780200740902007400080FF1F53
:100EC000088EFF1FC800400088004000908EFF1F62
:100ED000198EFF1F988EFF1F188EFF1FC02007401E
:100EE000888EFF1F848EFF1F7C8EFF1F9820074077
:100EF000942007405C8EFF1F948EFF1F88200740C0
:100F0000B48DFF1FA88EFF1FB08DFF1FC48DFF1F64
:100F100042F221039A4200F0358100F2D980B2F505
:100F2000086F00F0B382B2F5106F40F03182B24A20
:100F3000D9F820309EF8021011701A0600F1438390
:100F4000AB6AAE4A1B0600F139832B6BAB4A18061D
:100F500000F14E83AB6BA94A190600F144832B6C58
:100F6000A64A1B0600F13A83AB6CA44A180600F1AE
:100F700030832B6DA14A190600F16483AB6D9F4A43
:100F80001B0600F15A832B6E9C4A180600F1508311
:100F9000AB6E9A4A190600F146832B6F974A1B06DF
:100FA00000F13C83AB6F954A180600F13283D5F807
:100FB0008030924A190600F12683D5F888308F4A8E
:100FC0001B0600F11A83D5F890308C4A180600F100
:100FD0004483D5F89830894A190600F138830023F4
:100FE0000193874B0293874B0393874B0593DFF85D
:100FF00060A2864BDFF85C920493029B186830B1C4
:10100000D0F8048000F00CFC40460028F8D1039B87
:101010001868029B1A4600231360019B1A4600239E
:101020004AF8223030B1D0F8048000F0F9FB404695
:101030000028F8D1039A049B114600220A60059A01
:101040001B781146002241F8042B019A0591023BBE
:101050004FF0000129F81210032B00F23F81DFE866
:1010600013F08B0139018B013901BCF1400F18BF1E
:101070000023B5E6664A0F784878177050708F786D
:10108000C8789770D07010680F79177186284F79DB
:1010900089799171577108BF5E4A5F4F04BF0F2174
:1010A00011705E4A38781178002881F0010E41F005
:1010B000020182F800E00CBF8822C82245F83120E6
:1010C00005EBC10180F00100002238704A609BE608
:1010D00042F221239A4240F0E781DFF87C91504BA5
:1010E000504A9EF80200D9F800E0C3F800E00191F0
:1010F000CDF808C010700021029B03918A468946F2
:101100000846464A92F800E04EF0020C05EBCC0887
:10111000002BC8F804000CBF8820C82040EA0A0A47
:101120009DF8043045F83CA08EF001003B70107033
:10113000DFF8C8C0DFF8E080DFF8E0A0002940F069
:101140002E81B9F1400F1DD140F0020005EBC00522
:10115000039B6B60019DDFF8A4C0002D40F0368139
:101160000D0445F088084CF830809DF808503D701B
:1011700082F800E00B44402904D100212A4ACBF830
:1011800000301180294A0123137040E600F078FBFB
:101190008BE51A4B254821491A614FF0020E80F861
:1011A00000E0234F0A70234919609960224E234DB5
:1011B000234C9A610D213970FF213170DFF89CE0DA
:1011C000297022701F4D204A8EF800109F2701249D
:1011D00006F8047C5D600470DA6007B0BDE8F08F4B
:1011E0001A4A47F83B001378013313703FE543F880
:1011F0002500DFF85CA020E5908EFF1F0080FF1F18
:10120000088EFF1F5C8EFF1F6C8EFF1F948EFF1FCA
:10121000B08EFF1F198EFF1F188EFF1F848EFF1FB9
:10122000B88EFF1FA48EFF1FC48DFF1F94200740A0
:10123000C0200740880040008820074080200740E9
:1012400098200740C88DFF1F1C8EFF1F858EFF1F33
:10125000B48DFF1FA88EFF1F2C8CFF1F8C20074012
:10126000535D032B00F2CC8001A151F823F000BFA5
:101270006F0C00006F0C0000CF120000C9120000BC
:10128000BE49BF4B80220D2008701A70AA077FF557
:1012900000AEF7E540F202339A4240F0FC80BEF81F
:1012A000042002F07F02042A72D8BEF80230002B1C
:1012B0006ED1B249019392001144CDF808C00A786A
:1012C00042F002020A7016E701235355CFE40023CF
:1012D0005355CCE4049B4FF001021A70029A019B13
:1012E00004320292039A04320392049A01330132C7
:1012F000042B019304927FF480AEDFF8B492DFF800
:10130000B4A299F800309F4A00218AF800101370A7
:101310001B0700F10A8199F801309B4ADFF8988297
:10132000137018074FF000022A63AA6300F1E880E7
:1013300099F80230954ADFF88082137019074FF050
:1013400000022A65AA6500F10381914A99F80330E9
:10135000137000222A67AA671A07DFF85C9200F16F
:10136000B8803B780293002283F001030193C5F813
:101370009020C5F89820BEE6049B4FF000021A703A
:10138000ACE7BEF8042002F07F02042A40F291800C
:101390007A4B0F221A707F4A0123137037E54029D8
:1013A0007FF6D2AE40F002000CEBC002039B53600C
:1013B000019AC2B1784A9DF8085088F80050403927
:1013C0008AF800E040334CF83020D7E69DF808302A
:1013D0003B700D04039B82F800E045F0C8050B4408
:1013E0004CF83050C7E69DF8083088F80030039B71
:1013F0006A4A8AF800E0403940334CF83020BDE6B4
:1014000018F0080F0CBF0223032353552FE4644840
:101410004FF0020C01704170BEF80610614580F07B
:101420006181604A92F800E04EF0020C05EBCC03BB
:101430004029894628BF4FF04009586000EB090356
:101440000393002301930123C9EB01014FEA094AE9
:101450000293C82062E6544B5868002898D0BEF822
:101460000210BEF804C003E00C33586800288FD087
:101470001A888A42F8D15A886245F5D1090A0329A7
:101480000CBF90F800C0B3F808C0C5E7474B44480C
:101490001B780370C0E7B2F5A06F7FF479AF00232B
:1014A00001930123029326E642F221339A42F6D0B9
:1014B0006EE7BEF80230002B7FF46AAF2F4901932C
:1014C00092001144CDF808C00A7822F002020A7096
:1014D00011E600F087F9002800F0D08008302F4B8B
:1014E000C9F88400C9F8803000F07CF9002800F0C9
:1014F000BD800830284BC5F88C00C5F8883030E72F
:1015000000F070F9002800F0D6800830234BC8F8AE
:101510004400C8F8403000F065F9002800F0C480AD
:1015200008301D4BE864AB6402E700F05BF900286B
:1015300000F0B3800830194B68622B6200F052F95A
:10154000002800F0A3800830134BE862AB62E2E6AB
:1015500000F048F9002800F0BD8008300F4BC8F8B3
:101560006400C8F8603000F03DF9002800F0AB805E
:101570000830094BE866AB66E7E600BFC0200740CD
:1015800080200740C4200740C8200740CC200740E7
:10159000D020074094200740C80040008800400049
:1015A000888EFF1F848EFF1FC01B0000908EFF1FC0
:1015B000BC1B0000858EFF1F0080FF1FD06A08380B
:1015C00000F02EF9C1E4D9F82400083800F028F919
:1015D000B6E4D06C083800F023F9CAE4506C08383F
:1015E00000F01EF9C0E4D06B083800F019F9B6E439
:1015F000506B083800F014F9ACE4D2F88C000838CD
:1016000000F00EF9DFE4D2F88400083800F008F9A1
:10161000D3E4D06F083800F003F9C8E4506F0838FD
:1016200000F0FEF8BEE4D06E083800F0F9F8B4E43B
:10163000506E083800F0F4F8AAE4D06D083800F0D5
:10164000EFF8A0E4506D083800F0EAF896E4D2F81C
:101650009C00083800F0E4F8C1E4D2F8940008389F
:1016600000F0DEF8B5E44FF0020CD5E69AF8003051
:10167000C5F8880001338AF8003072E69AF8003025
:10168000C9F8800001338AF800302DE79AF800305D
:10169000A86201338AF800303DE69AF800302862EB
:1016A00001338AF8003049E79AF80030A864013322
:1016B0008AF800303CE69AF80030C8F84000013360
:1016C0008AF8003027E79AF80030A86601338AF8D4
:1016D00000303AE69AF80030C8F8600001338AF822
:1016E000003040E7BCF1400FE14628BF4FF0400911
:1016F00000EB09030393002301930123C9EB0C01C1
:101700004FEA094A0293FCE4F8B500F05FF9294B6F
:1017100029482A4C2A4F2B4DDFF8BCC0DFF8BCE02B
:10172000294E00221A605A609A60DA601A615A6182
:101730009A61DA611A625A629A62DA621A635A63C9
:101740009A63DA631A645A649A64DA641A655A65A9
:101750009A65DA651A665A669A66DA661A675A6789
:101760009A67DA67C3F880200168C3F8842041F4DF
:1017700080210160C3F307212170C3F3074013499F
:1017800038701B0E2B70FF238CF80030104D8EF834
:10179000003010480B700123337084F864207026E9
:1017A0004FF40074102207F82C3C2E70046081F86E
:1017B000F820F8BD0080FF1F348004409C200740C3
:1017C000B0200740B4200740942007401020074075
:1017D00049E400E008E100E080200740882007405D
:1017E0007047FFFF10B572B60B480268B2FA82F17B
:1017F0000B2902DD62B6002010BD4FF00043CB4044
:1018000022EA0302026062B6044C48234B43E0180C
:101810000022E250426010BD2087FF1FBC83FF1FE3
:101820000C4B4822C31AB3FBF2F30B2B11D80A4A14
:10183000127822B1094A12780AB1FFF727B972B6B5
:1018400007494FF0004222FA03F30A681A430A607C
:1018500062B67047BC83FF1F858EFF1F908EFF1FEF
:101860002087FF1F044B9888044B1A681AB113880D
:1018700052889B1A18447047A88EFF1FA08EFF1F26
:1018800038B50E4B1B7803F0FF05ABB90C4C216843
:1018900031B14B880B800420FFF75CF9256038BD1F
:1018A000FFF7A0FF014620B10420BDE83840FFF754
:1018B00051B9044B01221A7038BD00BF998EFF1F29
:1018C0009C8EFF1F988EFF1F10B5204B204821498A
:1018D00060221A70E1225A701F4B204A1C78204B5C
:1018E000082C01D1012402E00A2C03D11924046040
:1018F000132005E00C2C0CBF15243D24046012209D
:10190000086014601860174B17491B78174A03B119
:1019100001230B601360164B164A1978164B0129E8
:1019200001D880210BE0042901D8842107E008298F
:1019300001D8852103E0102994BF862187211160F9
:1019400019600E4B01221A7010BD00BF0040074005
:1019500008B003400CB003402487FF1F08B00B40C1
:101960000CB00B40A68EFF1F20B0034020B00B40F0
:101970002587FF1F24B0034024B00B40A58EFF1F16
:1019800008B50B4D2C462B68580301D5FFF724F9F9
:101990002368590501D5FEF7F7FE23681A0501D51E
:1019A000FEF780FF2368DB04EDD5FFF709F8EAE7CF
:1019B0003480044008B5FFF7E3FFFFFF014B10221E
:1019C0001A807047002005407047FFFF1FB572B6B0
:1019D000154B70221A70154A412111700F2102F81F
:1019E000011C80221A701A781206FCD5104B186858
:1019F00062B6104B984298BF0A2301AC98BF584377
:101A00000A22214600F01CF80B4A0023E15C21B1B8
:101A100001330A2B22F8021BF8D1084A01335B007C
:101A2000137004B010BD00BF000002400700024068
:101A3000080002407F969800B087FF1FAE87FF1F07
:101A400030B503460020B3FBF2F402FB1433092B3C
:101A500094BF30333733DBB20B5423460CB1013023
:101A6000F1E70A1823465470C41AA34206DACC5C84
:101A70001578CD5402F801490133F5E7084630BD29
:101A800070B50F4E0F4D761BB61018BF002405D051
:101A9000013455F8043B9847A642F9D10A4E0B4D44
:101AA000761B00F0B9F8B61018BF002406D0013438
:101AB00055F8043B9847A642F9D170BD70BD00BFF0
:101AC000241C0000241C00002C1C0000241C00000E
:101AD000024B13B1024800F005B870470000000047
:101AE000F11A0000002301461A46184600F014B807
:101AF00038B5074D074C2C1BA41005D0013C55F8F8
:101B0000043D9847002CF9D1BDE8384000F08EB86C
:101B100000000000000000002DE9F047254C25687A
:101B2000D5F848410646884692469946C4B360684F
:101B30001F2817DC431C76B104EB80050122C5F891
:101B400088A0D4F8881182401143022EC4F888116D
:101B5000C5F808911ED00230636044F82080002050
:101B6000BDE8F087144B03B34FF4C870AFF30080A7
:101B70000446D0B1D5F84831002780E88800C5F880
:101B8000484138460123C4F88871C4F88C71002E8E
:101B9000E1D0D1E7D4F88C110A43C4F88C21DAE7FC
:101BA00005F5A674C5F84841C1E74FF0FF30BDE820
:101BB000F08700BF141C000000000000001519157C
:101BC000000100002687FF1F120000000002000035
:101BD0005087FF1F4300000000030000AA87FF1F7B
:101BE00000000000010309043887FF1F0000000007
:101BF000020309049487FF1F000000000303090487
:101C0000AE87FF1F00000000000000000000000081
:101C100000000000C887FF1FF8B500BFF8BC08BC73
:0C1C20009E467047D11A000035040000F9
:041C2C00F8B500BF48
:101C3000FFFFFFFF0A041201100102000040C0165E
:101C40008304750201020301180354006500650056
:101C50006E00730079006400750069006E006F000B
:101C600009024300020100C032090400000102021F
:101C700001000524001001052401010104240206CD
:101C80000524060001070582031000400904010035
:101C9000020A000000070503024000000705840255
:101CA000400000001603550053004200200053007E
:101CB00065007200690061006C00040309040C03F4
:101CC0000000000000000000000000000000000014
:101CD000000000000000000000000000B48AFF1FA8
:101CE0001C8BFF1F848BFF1F000000000000000002
:101CF00000000000000000000000000000000000E4
:101D000000000000000000000000000000000000D3
:101D100000000000000000000000000000000000C3
:101D200000000000000000000000000000000000B3
:101D300000000000000000000000000000000000A3
:101D40000000000000000000000000000000000093
:101D50000000000000000000000000000000000083
:101D60000000000000000000000000000000000073
:101D70000000000000000000000000000000000063
:101D800001000000000000000E33CDAB34126DE600
:101D9000ECDE05000B000000000000000000000069
:101DA0000000000000000000000000000000000033
:101DB0000000000000000000000000000000000023
:101DC0000000000000000000000000000000000013
:101DD0000000000000000000000000000000000003
:00000001FF
